:100000005BC075C074C04DC172C071C081C06FC08B
:1000100024C46DC06CC06BC06AC096C068C0A3C069
:1000200066C03CC364C063C062C061C0E2C05FC060
:100030005EC05DC0BCC2BBC2BAC2B9C2B8C2B7C2A0
:10004000B6C2B5C2B4C2B3C2B2C2B1C2A7C2AFC215
:10005000AEC2ADC2ACC2A8C2A7C2A6C2A5C2A4C24B
:10006000A3C2A5C2A4C2A3C2A2C2A1C2A0C29FC26F
:100070009EC29DC29CC29BC293C299C298C297C2A3
:1000800096C295C294C28EC292C28EC290C28FC2D4
:100090008EC28DC28CC28BC28AC289C288C287C2FC
:1000A00086C285C284C283C282C281C280C27FC22C
:1000B0007EC27DC27CC27BC211241FBECFEFCDBFEA
:1000C000DFE3DEBF2EE3A6E0BEE301C01D92A13256
:1000D000B207E1F71EE3A0E0BEE3E8E4FCE002C003
:1000E00005900D92A630B107D9F763D2ABC588CF82
:1000F0006DD30895FC016817790738F080E091917D
:10010000890F6E177F07D8F701C080E081950895A9
:100110001F920F920FB60F9211248F93EF93FF93BC
:100120008091083E811105C0E0E4F1E080818E7F7E
:10013000808382E080934301FF91EF918F910F9034
:100140000FBE0F901F9018951F920F920FB60F922F
:1001500011248F9381E08093460A8F910F900FBEF8
:100160000F901F9018951F920F920FB60F921124A7
:100170008F938CE080938D0A8F910F900FBE0F901C
:100180001F901895CF938091093E90910A3EFC01F3
:10019000628170E0E60FF71FC3816E5F7F4F680FCB
:1001A000791F0196A7DFC81729F082E080931A3ED5
:1001B00080E001C081E0CF9108958091093E909147
:1001C0000A3EB0D410920B3E1092083E1092073EA9
:1001D0000895E091093EF0910A3E85818093173E93
:1001E0000895E091093EF0910A3E84818093193E82
:1001F00008951F920F920FB60F9211242F933F93E1
:100200004F935F936F937F938F939F93AF93BF931E
:10021000CF93DF93EF93FF938091073E81110CC042
:1002200061E070E080E290E0CBD38093093E909350
:100230000A3E81E08093073EC091093ED0910A3E7C
:1002400088818A3AA1F480910B3E8F5F80930B3EA8
:1002500080910B3EC80FD11D59D388838091083EF1
:10026000811107C081E08093083E0BD302C04ED3BA
:10027000888380910B3E8F3108F09FDFFF91EF91D3
:10028000DF91CF91BF91AF919F918F917F916F91AE
:100290005F914F913F912F910F900FBE0F901F9044
:1002A00018951F920F920FB60F9211248F93EF9310
:1002B000FF9380910904882344F481E08093063EF3
:1002C000E9E0F4E0808180688083FF91EF918F9175
:1002D0000F900FBE0F901F901895EF92FF920F9303
:1002E0001F93CF93DF931092200A1092210A10924D
:1002F0004A0A10924B0A8091133E823009F480C062
:1003000030F4882309F47CC0813039F076C0833022
:1003100019F1843009F453C070C003E010E0C0E468
:10032000DAE06ED288818160888325E186E195E0FC
:10033000215080409040E1F769D288818E7F888388
:10034000EAE2FCE22AE0E150F0402040E1F7000060
:100350000150110931F754C065D2C0E4DAE0888158
:10036000816088838AE29CE2EAE081509040E0402C
:10037000E1F700005DD288818E7F8883FAE22CE26B
:100380008AE0F15020408040E1F700004BD28881A4
:10039000816088839AE2ECE2FAE09150E040F0401C
:1003A000E1F7000045D288818E7F88832AE28CE2C3
:1003B0009AE0215080409040E1F7000021C00F2ECC
:1003C000F5E0EF2EF4E0FF2EF02DC0E806E014E09B
:1003D00017D2F701C083F5E126E185E0F150204016
:1003E0008040E1F713D2F801C083F5E126E185E012
:1003F000F15020408040E1F7EBCF83E080931A3E3C
:10040000DF91CF911F910F91FF90EF900895EF92A0
:10041000FF920F931F93CF93DF93CDB7DEB72B9748
:10042000CDBFDEBF8AEA89831A8282E08B8382E1B4
:100430008C831D821E821F8281E0888719868A87AD
:1004400089E98B87BE01655F7F4FCE01039652DE3F
:100450008C8780E063D28E010F5F1F4F7E018CE09E
:10046000E80EF11CF80181918F0158D20E151F057D
:10047000C9F72B96CDBFDEBFDF91CF911F910F91B2
:10048000FF90EF900895CF93E091093EF0910A3EDE
:10049000828580FF0AC09385992349F09093133E8B
:1004A00091E09093063ECBE003C0CAE001C0CBE0F0
:1004B00081FF13C0CF5FEC0FF11D8081E3E1FEE30C
:1004C0008183218130E0AFEFBFEF4CD224E630E0F2
:1004D00040E050E02BD2C901B1D1E091093EF0914A
:1004E0000A3E828582FF13C0CF5FEC0FF11D808131
:1004F000E3E1FEE38283228130E0AFEFBFEF32D24F
:1005000024E630E040E050E011D2C9019CD1E091F6
:10051000093EF0910A3E828583FF13C0CF5FEC0F46
:10052000F11D8081E3E1FEE38383238130E0AFEFBF
:10053000BFEF18D224E630E040E050E0F7D1C90127
:1005400087D1E091093EF0910A3E828584FF15C073
:10055000CF5FEC0FF11D8081E3E1FEE38583258110
:1005600030E0AFEFBFEFFED124E630E040E050E0F6
:10057000DDD120934C0A30934D0A49DFCF91089585
:10058000E091093EF0910A3EE3818E2F90E08234A3
:10059000910550F4FC01E65EFF4F099422DE07C08E
:1005A00072DF05C016DE03C085E080931A3E05DECB
:1005B000089561E070E080E290E002D2FC01809357
:1005C000093E90930A3E81E08093073E8093083E67
:1005D0009AEA908311829DE0928392E2938314823F
:1005E0001582168295E09783108691879FE1928706
:1005F000838784E6848783E68587868781E6878785
:1006000080E180930B3E80910B3EEF01C80FD11D1E
:1006100060910B3E70E0615071096E0F7F1FCF013A
:10062000019668DD888364DD82E080930604E6E25B
:10063000F4E097E090838083E9D0EED0F9D0E0E455
:10064000FAE080818E7F8083E7E1F4E0808183603F
:1006500080838091083E882381F0E091093EF091EB
:100660000A3E8281E80FF11D8381882331F08ADD03
:10067000882311F085DF01C0A0DD8091063E88232C
:1006800041F32BDE1092063EE4CFE0E0F6E081E09D
:100690008487828785E0808380E008951F920F928F
:1006A0000FB60F9211242F933F934F935F936F9345
:1006B0007F938F939F93AF93BF93EF93FF93E0E06C
:1006C000F6E0838581608387E0910C3EF0910D3EDA
:1006D000309709F00995FF91EF91BF91AF919F91EC
:1006E0008F917F916F915F914F913F912F910F90DB
:1006F0000FBE0F901F90189580E0089580E0089538
:10070000789480E0089581E48093800680E00895E5
:10071000E0E1F4E0808188608193E83184E0F807CB
:10072000C9F7E0E3F4E0808188608193E83384E0F6
:10073000F807C9F7E0E5F4E0808188608193E83547
:1007400084E0F807C9F70895E4E1F4E08081887F48
:10075000846080838081877F8083E5E1F4E080810D
:10076000887F846080838081877F80838EDF089587
:100770000298E2E1F4E08081877F8083E0E0F2E0AC
:100780008181816081830998019A8181816081835F
:10079000AFD008952898209A2998219A2A98229AC9
:1007A00026D008954898409AE0E0F2E08381816085
:1007B00083837BD00895E6E1F4E08081887F8460C4
:1007C00080838081877F80839EDF0895A1DF96DF0D
:1007D00058D0BADFCDDFDEDFE5DF71D0ECDF90DFB0
:1007E00062D08ADF0895FC0164BF40830895E0E091
:1007F000FAE083E7818381E08687808380E0089543
:10080000E0E0FAE08181806181830895E0E0FAE030
:1008100081818F7E81830895E0E0FAE081818F7D80
:1008200081830895E0E0FAE0818180648183089506
:10083000E0E0FAE081818F7B818308958093380A1C
:100840009093390A089580933A0A90933B0A089549
:1008500080933C0A90933D0A08951F920F920FB621
:100860000F9211248F9381E080930B0A80910E3EAA
:100870008F5F80930E3E8F910F900FBE0F901F9051
:100880001895E0E4F1E081818111FDCFE0E4F1E031
:100890008FEF9FE78087918781E08083858382E067
:1008A000828380E0089580E00895E0E4FAE087E143
:1008B000818381E080878583808380E00895CF9362
:1008C000DF93C0E8DAE081E08E8F43E368ED82E9F0
:1008D0009AE089DF8CE08C87E0E8FAE0868580FF8B
:1008E000FDCF81E08093800A80E0DF91CF91089571
:1008F000E0E0F8E084E790E08087918780E88583F6
:1009000080EC868381E0838780E00895E0E0F8E072
:1009100084818823ECF7809100080895E0E0F8E0F6
:10092000948195FFFDCF809302080895052E97FBD3
:1009300016F400940FD057FD05D020D007FC02D04C
:1009400046F408C050954095309521953F4F4F4F44
:100950005F4F089590958095709561957F4F8F4F6B
:100960009F4F0895A29FB001B39FC001A39F01D0E4
:10097000B29F700D811D1124911D0895A1E21A2EC0
:10098000AA1BBB1BFD010DC0AA1FBB1FEE1FFF1F33
:10099000A217B307E407F50720F0A21BB30BE40B83
:1009A000F50B661F771F881F991F1A9469F76095CA
:1009B0007095809590959B01AC01BD01CF01089584
:1009C0000F931F93CF93DF93869F8001879F100D16
:1009D000969F100D1124C8010DD0EC01009721F055
:1009E000A80160E070E027D1CE01DF91CF911F9187
:1009F0000F9108950F931F93CF93DF93823091054A
:100A000010F482E090E0E0911F3EF091203E20E063
:100A100030E0A0E0B0E0309719F1408151810281CF
:100A2000138148175907C8F08417950769F4109780
:100A300031F012960C93129713961C9327C00093D3
:100A40001F3E1093203E22C02115310519F0421798
:100A5000530718F49A01BD01EF01DF01F801DBCF64
:100A600021153105F9F0281B390B2430310580F4AC
:100A70008A819B816115710521F0FB01828393833B
:100A800004C080931F3E9093203EFE01329644C0E6
:100A9000FE01E20FF31F81939193225031092883C5
:100AA00039833AC020911D3E30911E3E232B41F4E4
:100AB0002091023E3091033E20931D3E30931E3E16
:100AC0002091003E3091013E2115310541F42DB7B2
:100AD0003EB74091043E5091053E241B350BE091FA
:100AE0001D3EF0911E3EE217F307A0F42E1B3F0BB4
:100AF0002817390778F0AC014E5F5F4F2417350790
:100B000048F04E0F5F1F40931D3E50931E3E819351
:100B1000919302C0E0E0F0E0CF01DF91CF911F910F
:100B20000F910895CF93DF93009709F481C0FC01E2
:100B3000329712821382A0911F3EB091203E1097EF
:100B400081F420813181820F931F20911D3E3091CD
:100B50001E3E2817390751F5E0931D3EF0931E3EC7
:100B600067C0ED0120E030E0CE17DF0740F44A8196
:100B70005B819E0141155105F1F0EA01F5CFC28379
:100B8000D38340815181840F951FC817D90759F429
:100B900088819981840F951F0296808391838A8131
:100BA0009B81828393832115310529F4E0931F3EB5
:100BB000F093203E3DC0E901EA83FB8349915991BE
:100BC000C40FD51FEC17FD0761F480819181840F5C
:100BD000951F0296E90188839983828193818A8394
:100BE0009B83E0E0F0E012968D919C911397009723
:100BF00019F0FD01DC01F7CF8D919C9111979D01BA
:100C00002E5F3F4F820F931F20911D3E30911E3E5D
:100C10002817390769F4309729F410921F3E109273
:100C2000203E02C012821382A0931D3EB0931E3E4E
:100C3000DF91CF910895DC0101C06D934150504088
:080C4000E0F70895F894FFCFDE
:060C48000000213E200027
:00000001FF
